:020000040800F2
:10000000D006002001010008DF1A00083B18000894
:10001000DD1A000835020008271F00080000000054
:100020000000000000000000000000005F1B00084E
:1000300037020008000000005D1B00081D1C0008BE
:100040001B0100081B0100081B0100081B01000820
:100050001B0100081B0100081B0100081B01000810
:100060001B0100081B0100081B0100081B01000800
:100070001B0100081B0100081B0100081B010008F0
:100080001B0100081B0100086D0100081B0100088E
:100090001B0100081B0100081B0100081B010008D0
:1000A0001B010008E51C00081B0100081B010008DB
:1000B0001B0100081B0100081B0100081B010008B0
:1000C0001B0100081B0100081B0100081B010008A0
:1000D0001B0100081B0100081B0100081B01000890
:1000E000390200081B0100081B010008DFF80CD0D2
:1000F00000F02AF800480047691F0008D0060020D9
:100100000648804706480047FEE7FEE7FEE7FEE7B1
:10011000FEE7FEE7FEE7FEE7FEE7FEE79D1C0008C0
:10012000ED000008D2B201E000F8012B491EFBD21D
:1001300070470022F6E710B513460A4604461946F2
:10014000FFF7F0FF204610BD064C074D06E0E068C3
:1001500040F0010394E8070098471034AC42F6D30E
:10016000FFF7C8FFCC200008EC200008014800F091
:10017000CEB900008000002070B504460068816898
:10018000C943C9071CD1816821F00101816000F0D9
:100190007DFC05460FE000BF00F078FC401B022804
:1001A00009D9A06A40F01000A062E06A40F00100A6
:1001B000E062012070BD20688068C043C007EBD0BA
:1001C000002070BDF8B500260446009600688168DE
:1001D000C943C90728D0816841F0010181601348F3
:1001E00013490068B0FBF1F000E0401E00900028C9
:1001F000FBD100F04BFC054611E000BF00F046FCCF
:10020000401B02280BD9A06A40F01000A062E06AEF
:1002100040F00100E06284F824600120F8BD20680D
:100220008068C043C007E9D10020F8BD7C000020F1
:1002300040420F00FEE7704710B54FF4805000F0C9
:1002400023FB4FF4005000F01FFB4FF4804000F000
:100250001BFB4FF4004000F017FB0F4801F0D7F8EC
:100260000D480068426A0D490B681A4452080A603A
:1002700000214162084801F0A7F8094800680949CF
:10028000C0F3423008700849085C08490870BDE8AE
:10029000104001F027BC0000F000002048000020C2
:1002A000080C01400600002060000020040000202F
:1002B000F8B500250446009590F82400012808D0E0
:1002C000012084F824002046FFF756FF060002D0E4
:1002D0004BE00220F8BDA06A20F4885040F00200F4
:1002E000A062022000F070FC22490968B1FBF0F026
:1002F000400000E0401E00900028FBD12046FFF7A0
:1003000061FF2068816841F00801816000F0BEFB58
:10031000074604E000F0BAFBC01B0A2811D8206889
:1003200080680007F6D42068816841F0040181608C
:1003300000F0ACFB07460EE000F0A8FBC01B0A284B
:1003400009D9A06A20F0020040F01000A06284F8F1
:1003500024500120F8BD206880684007ECD4A06AD2
:1003600020F0020040F00100A06284F824503046E2
:10037000F8BD00007C0000207047000030B590F808
:100380002420012A1ED0012280F824200A7A012A82
:100390000268536818D023F040035360D1E900236A
:1003A0001A4303685C680A4D2C4022435A60036874
:1003B000CA685A62026809699162002180F82410B3
:1003C000084630BD022030BD43F04003E5E70000A1
:1003D000E0FD3FFFF8B50024009490F82420254666
:1003E000012A12D0012280F824204A681F23072AFC
:1003F0000DD20668776B521E02EB820293409F4338
:100400000B6893401F43776319E00220F8BD06682C
:100410000D2A0AD2376BD21F02EB820293409F4310
:100420000B6893401F43376309E0F76A0D3A02EB0C
:10043000820293409F430B6893401F43F7620A6810
:10044000072306680A2A0AD3F7680A3A02EB42022F
:1004500093409F438B6893401F43F76008E03769E0
:1004600002EB420293409F438B6893401F433761E6
:100470000A68102A01D0112A20D1124B02689A4230
:1004800017D193681B0219D4936843F40003936057
:100490000968102912D10C490C4A0968B1FBF2F124
:1004A00001EB8101490000E0491E00910029FBD1C8
:1004B00004E0816A41F020018162012480F8245027
:1004C0002046F8BD002401407C00002040420F007F
:1004D00010B50B4800F018F809490A4CB0314A68C9
:1004E000104448602069401C2061082807D3044854
:1004F00000F0AAF908B1012020700020206110BD91
:1005000080000020000000200068C06C704710B51B
:10051000044600684168890626D50168890723D505
:10052000A16AC90603D4A16A41F40071A16281687D
:10053000C1F34241072910D1217B71B9416821F0F3
:1005400020014160A06A20F48070A062A06AC0040B
:1005500003D4A06A40F00100A0622046FFF7B8FF74
:1005600021686FF0120008602068416809062ED5E6
:10057000016849072BD5A16AC90603D4A16A41F4D1
:100580000051A1628168C1F30231072909D0416895
:10059000490515D48168C1F34241072910D1217B57
:1005A00071B9416821F080014160A06A20F4805057
:1005B000A062A06AC00503D4A06A40F00100A06256
:1005C0002046FFF7D9FE21686FF00C000860206814
:1005D000416849060DD50068C0070AD0A06A40F4FA
:1005E0008030A062204600F093F821686FF001008F
:1005F000086010BD2DE9F0414FF0000704003D46B2
:100600007ED0A06A002628B9E66284F824602046DD
:1006100000F080F82046FFF7AFFDA16AC90600D4BC
:1006200020B1A06A40F01000A06269E0A16A21F444
:10063000885141F00201A1626268E169237B0A43AB
:1006400047EA43010A43A1684FF48077B94209D0D1
:10065000012907D05FF0000194F814C0BCF1010F2C
:1006600002D00AE03946F7E7F3B1A36A43F020036A
:10067000A362E36A43F00103E3622368D3F804C092
:100680002CF4694C4CEA010CC3F804C021688B6857
:10069000DFF870C003EA0C0313438B60A168B94212
:1006A0000BD0012909D00CE0DFF85CC0A3690CEB8A
:1006B00043330B4343F40061DFE7218A0D05A5F5C1
:1006C00080152168CB6A23F470032B43CB62216829
:1006D00089680E4B1940914208D1E662A16A21F067
:1006E000020141F00101A162BDE8F081A06A20F0A1
:1006F000020040F01000A062E06A40F00100E062F9
:100700000120F1E7FDF7E1FF00E0FFFFFE0E1FFF14
:100710007047000000B585B0002100910191029161
:10072000039100681249884220D11248816941F43E
:1007300000718161816901F400710491816941F066
:10074000040181618069694600F004000490C020C2
:10075000009003200190084800F0A2F80022052133
:10076000122000F0FFF9122000F0EEF905B000BDF4
:1007700000240140001002400008014070B504460A
:1007800090F8240001280DD0012084F82400204690
:10079000FFF718FD02004FF0000005D084F8240098
:1007A000104670BD022070BDA16A40F601639943F6
:1007B00041F48071A162224D23682249AB4218D1D5
:1007C0000E6816F4702F14D0A66A46F48016A6623E
:1007D0000E68760505D5A66A26F4005646F48056BE
:1007E000A662A66AF6040AD5E66A26F00606E6625E
:1007F00006E0A66A26F48016A6625E68E9E7E06273
:1008000084F824006FF0020018602068436843F009
:100810002003436020688368C3F34243072B05D15C
:10082000A84208D1096811F4702F04D0816841F4FE
:1008300080118160B4E7816841F4A001F9E700000C
:10084000002801400424014010B5044690F824001B
:10085000012807D0012084F824002046FFF78CFCF3
:1008600010B10CE0022010BD21684A6822F020027D
:100870004A60A16A21F4885141F00101A16200217E
:1008800084F8241010BD7047044910B50A6802426C
:1008900002D00860FFF7F7FF10BD0000140401400C
:1008A0002DE9F84FDFF8B891002409F1040A0AF1A4
:1008B000040B23460F270BF1040EC9E00125A540C8
:1008C0002A40AA427DD1674ED1F804C0ACEB06089D
:1008D000B44532D014DCBCF1030F3AD009DCBCF1D2
:1008E000000F2AD0BCF1010F1CD0BCF1020F31D196
:1008F0001DE0BCF1110F17D0BCF1120F2AD119E085
:10090000B8F5881F19D006DCB8F5803F15D0B8F5CA
:10091000801F1FD111E0B8F5001F0ED0B8F5041FDD
:1009200018D10AE0CB6815E0CB681B1D12E0CB683C
:1009300008330FE0CB680C330CE08B682BB1012B34
:100940004FF0080303D0456104E0042302E0056191
:1009500000E00023FF2A01D8064601E000F104066A
:100960004FEA840501D9A5F12005D6F8008007FAE1
:1009700005FC28EA0C0803FA05F548EA0508C6F85C
:1009800000804D68ED0062D5374DAE6946F0010636
:10099000AE61AD6924F0030605F001050095334D05
:1009A00006EB050CDCF80850A607360F07FA06F828
:1009B00025EA0805DFF8B880404503D14FF000086C
:1009C00017E044E0DFF8AC80404502D14FF0010869
:1009D0000FE0DFF8A480404502D14FF0020808E0A4
:1009E000DFF89880404502D14FF0030801E04FF056
:1009F000040808FA06F848EA0508CCF808804D68AB
:100A0000D9F80060ED034D4601D5164300E096434A
:100A10002E604D68DAF80060AD03554601D51643E7
:100A200000E096432E604D68DBF80060ED025D4605
:100A300001D5164300E096432E604D68DEF8006055
:100A4000AD02754601D5164300E096432E60641C46
:100A50000D682A46E5407FF431AFBDE8F88F00000D
:100A6000000401400000111000100240000001408D
:100A700000080140000C014000100140001401403A
:100A80000AB1016170470904FBE700000148806872
:100A9000704700007000002002488168027811440D
:100AA0008160704770000020074810B5016841F070
:100AB00010010160032000F075F8002000F006F836
:100AC00000F024F8002010BD0020024070B50D4D4C
:100AD00004464FF47A712878B1FBF0F00A490968AE
:100AE000B1FBF0F000F0CAFB48B9102C07D200228D
:100AF0002146501E00F036F800206C6070BD0120C9
:100B000070BD0000700000207C0000200C4808B57B
:100B1000816941F001018161816901F00101009168
:100B2000C16941F08051C161C06900F080500090FE
:100B30000448416821F0E06141F00071416008BD66
:100B40000010024000000140002809DB00F01F02F5
:100B5000012191404009800000F1E020C0F800111F
:100B600070470000F0B40E4B1B680C46C3F3022321
:100B7000C3F10705042D00D90425191D072901D249
:100B8000002300E0DB1E012606FA05F1491E214084
:100B900099409E40761E16403143F0BC01F0C4B926
:100BA0000CED00E0064900F0070208684FF6FF036D
:100BB000184040EA0220034A1043086070470000D2
:100BC0000CED00E00000FA0510B529A401461DCC8B
:100BD00086B08DE81D002AA02A4C006804900020F1
:100BE000012923D002293AD010291DD16168226839
:100BF000D20119D5C1F38342C9031DF8020009D5FA
:100C0000616804AAC1F34041515C1F4AB2FBF1F193
:100C1000484301E01D4948436168490204D440004B
:100C20005FF00301B0FBF1F006B010BD226AC2F321
:100C30000121012903D1920701D5C803F4E7022954
:100C400005D1626A920702D549F64040ECE70329D4
:100C5000EAD121688903E7D54FF22440E4E700F0A8
:100C60002BF96168C1F38131491C4900DAE70000C2
:100C700002030405060708090A0B0C0D0E0F1010DD
:100C8000010200000010024000127A0000093D003D
:100C90002DE9F84305460078354CC00754D0E0698B
:100CA0000026C00008D4E06940F08050E061E069AF
:100CB000012600F0805000902E480168C90512D42A
:100CC0000168804641F480710160FFF7DFFE07464E
:100CD00005E000BFFFF7DAFEC01B642823D8D8F870
:100CE0000000C005F6D5206A10F4407021D0A98814
:100CF00001F4407181421CD0206A1F49012220F476
:100D000040700A6000220A602062C00711D0FFF71D
:100D1000BDFE074641F2883808E000BFFFF7B6FE87
:100D2000C11B414502D90320BDE8F883206A800732
:100D3000F4D5206A696820F44070084320621EB12F
:100D4000E06920F08050E0612878800705D5606870
:100D5000A96820F44040084360602878C00605D5A3
:100D60006068E96820F48000084360600020DBE7E9
:100D700000100240007000404004424270470000F2
:100D80002DE9F0470F46050061D0434E306800F072
:100D90000700B84209D2306820F0070038433060BD
:100DA000306800F00700B84251D128683B4C8107F9
:100DB00012D5400703D5606840F4E0606060287891
:100DC000000703D5606840F4605060606068A968FF
:100DD00020F0F000084360602878C00728D06868D9
:100DE000012810D02168022810D0890700292EDAA6
:100DF000616821F0030101436160FFF747FE80460F
:100E000041F288390DE021688903EFE78901EDE7B8
:100E1000FFF73CFEA0EB0801494502D90320BDE8DD
:100E2000F0876068696800F00C00B0EB810FEFD1CB
:100E3000306800F00700B8420BD9306820F0070096
:100E400038433060306800F00700B84201D001201C
:100E5000E5E72878400705D56068E96820F4E06098
:100E6000084360602878000706D56068296920F487
:100E7000605040EAC100606000F02EF86168084AE6
:100E8000C1F30311515CC840064908600648006878
:100E9000FFF71CFE0020C2E70020024000100240C5
:100EA000B42000087C0000207400002001490120CB
:100EB000C864704700004242044805490068496818
:100EC000044AC1F3C221515CC84070477C00002035
:100ED00000100240C420000812A185B00FC98DE89F
:100EE0000F0014A0144A006804905168134801F0E0
:100EF0000C03042B10D0082B0ED1C1F38343C9037C
:100F00001DF803000AD5516804AAC1F34041515CA1
:100F10000A4A5043B0FBF1F005B070470849484316
:100F2000FAE7000002030405060708090A0B0C0D86
:100F30000E0F1010010200000010024000127A0093
:100F400000093D0010B5044CA068000603D5FFF76A
:100F500015FF8020A07210BD001002402DE9F84F4F
:100F6000040070D02078C04DC00749D06868C0F335
:100F70008100012807D06868C0F38100022809D1E8
:100F80006868C00306D52868800339D560680028E2
:100F9000E7D035E06068B0F5803F0BD010B1B0F518
:100FA000A02F11D0286820F480302860286820F411
:100FB000802002E0286840F480302860606890B1AA
:100FC000FFF764FD06460AE0286840F480202860A8
:100FD000F0E700BFFFF75AFD801B642873D828682C
:100FE0008003F7D50CE0FFF751FD064605E000BF92
:100FF000FFF74CFD801B6428F0D828688003F7D4E5
:1010000020789A4E80074FF001094FF0000839D53B
:10101000686810F00C0F07D06868C0F381000228E0
:1010200009D16868C00306D42868800714D52069F0
:10103000012808D110E02069B0B1C6F80090FFF790
:1010400025FD074605E00AE1FFF720FDC01B022849
:10105000C4D828688007F7D52868616920F0F800AF
:1010600040EAC10028600DE0C6F80080FFF70EFDE1
:10107000074604E0FFF70AFDC01B022823D82868B2
:101080008007F7D4207800072CD57948A169D9B119
:10109000C0F80090FFF7FAFC074604E0FFF7F6FC03
:1010A000C01B02280FD8686A8007F7D571484FF433
:1010B000FA510068B0FBF1F0009000BF0098411EAB
:1010C0000091FAD20EE080E0C0F80080FFF7DEFC6D
:1010D000074604E0FFF7DAFCC01B022875D8686AEF
:1010E0008007F7D42078400760D5E8690027C00062
:1010F00008D4E86940F08050E861E869012700F011
:10110000805000905C480168C90513D4016883468B
:1011100041F480710160FFF7B9FC824606E000BF30
:10112000FFF7B4FCA0EB0A0064284ED8DBF80000FF
:10113000C005F5D5E06801280AD008B1052813D00C
:10114000286A20F001002862286A20F0040002E0EA
:10115000286A40F001002862E06841F2883B98B1BB
:10116000FFF794FC82460BE0286A40F004002862F6
:10117000EEE700BFFFF78AFCA0EB0A0159455AD8F9
:10118000286A8007F6D50CE0FFF780FC824605E070
:10119000FFF77CFCA0EB0A0159454CD8286A800770
:1011A000F6D41FB1E86920F08050E861E06988B3A7
:1011B0006968C1F38101022944D00228C6F8608021
:1011C00004D0FFF763FC044638E034E0FFF75EFC30
:1011D000074604E0FFF75AFCC01B02282BD82868FA
:1011E0008001F7D4206AB0F5803F05D16868A16816
:1011F00020F4003008436860D4E9080108436968B6
:1012000021F4741108436860C6F86090FFF73EFC53
:10121000044606E025E000BFFFF738FC001B02286B
:1012200009D828688001F7D51BE000BFFFF72EFC26
:10123000001B022802D90320BDE8F88F286880012E
:10124000F4D40EE00128F7D06868226A00F48031F7
:10125000914204D1616A00F47010884201D00120EB
:10126000EAE70020E8E700000010024000004242E8
:10127000800442427C0000200070004010B5401EF7
:10128000B0F1807F01D3012010BD4FF0E0246061F8
:101290000F21601700F048FE0020A06107202061A8
:1012A000002010BD7047704710B590F83C20012A0F
:1012B00022D0012280F83C20CA688C6822F4407257
:1012C00022434C6822F4806222430C6822F40062BC
:1012D00022430C6922F4805222434C6922F40052CA
:1012E0002243C969002322F480420A4301684A6408
:1012F00080F83C30002010BD022010BD70B590F881
:101300003C20012A19D0012400F83C4F02224270EF
:1013100050F83C3C5A689D6822F070060A6849689B
:10132000324325F0800529435A6050F83C2C9160E7
:10133000447000210170084670BD022070BD10B5D8
:10134000040003D094F83D0010B107E0012010BD67
:10135000002084F83C00204600F00CF8022084F8BD
:101360003D00211D206800F0C3FC012084F83D00F1
:10137000002010BD08B5114A01681148914211D1F1
:10138000816941F4006181618069002200F400609C
:10139000009005211920FFF7E5FBBDE80840192062
:1013A000FFF7D2BB074A914207D1C16941F0020160
:1013B000C161C06900F00200009008BD002C01402E
:1013C0000010024000040040022180F83D10016836
:1013D0008A6802F00702062A03D00A6842F0010276
:1013E0000A60012180F83D10002070470168CA683A
:1013F00042F00102CA600068816801F00701062915
:1014000003D0016841F00101016000207047022112
:1014100080F83D1001680A6A41F211131A4207D19F
:101420000A6A9B101A4203D10A6822F001020A607C
:10143000012180F83D100020704770B5044690F8F7
:101440003C00012817D0012584F83C50022084F884
:101450003D002068826822F0770222F47F42826099
:101460000868502830D00DDC20284DD005DC98B31A
:1014700010283BD148E0022070BD302844D04028DD
:1014800034D139E0602828D0702806D0B0F5805FCC
:101490002CD0B0F5005F29D10AE0CB68D1E9012159
:1014A000206800F068FC2068816841F0770109E05D
:1014B000CB68D1E90121206800F05DFC20688168DB
:1014C00041F48041816011E0CA684968206800F0F9
:1014D00007FD5021206807E016E0CA6849682068C7
:1014E00000F00FFD6021206800F04FFC84F83D50B3
:1014F000002084F83C0070BDCA684968206800F08C
:10150000EFFC40212068EFE7226801461046EBE738
:10151000704770B50446006801694FF00005C94383
:10152000890715D4C168C943890711D4E91E01612F
:1015300001202077206880698007204602D0FFF7CD
:10154000E7FF04E000F0BEF8204600F040F9257700
:1015500020680169C943490717D4C168C9434907CD
:1015600013D46FF0040101610220207720688069A4
:1015700010F4407F204602D0FFF7CAFF04E000F0DD
:10158000A1F8204600F023F9257720680169C943B6
:10159000090716D4C168C943090712D46FF00801BE
:1015A0000161042020772068C0698007204602D0AE
:1015B000FFF7AEFF04E000F085F8204600F007F9E1
:1015C000257720680169C943C90617D4C168C94392
:1015D000C90613D46FF0100101610820207720683C
:1015E000C06910F4407F204602D0FFF791FF04E06D
:1015F00000F068F8204600F0EAF8257720680169D5
:10160000C943C90708D1C168C943C90704D1891EA4
:101610000161204600F0F8F820680169C943090615
:1016200009D4C168C943090605D46FF0800101617E
:101630002046FFF737FE20680169C943490609D4EF
:10164000C168C943490605D46FF0400101612046D5
:1016500000F0F2F820680169C94389060BD4C1681B
:10166000C943890607D46FF0200101612046BDE817
:101670007040FFF718BE70BD00B585B00021009125
:1016800001910291039100680B49884212D10B48E5
:10169000816941F0040181618069694600F00400BC
:1016A00004904FF470600090022001900390044871
:1016B000FFF7F6F805B000BD002C01400010024015
:1016C00000080140704770B5044690F83C000D4694
:1016D00001280DD0012684F83C60022084F83D00EA
:1016E00042B1042A18D0082A2AD00C2A4DD139E058
:1016F000022070BD206800F051FB2068816941F034
:10170000080181612068816921F0040181612068FC
:1017100081692A69114311E0206800F067FB2068A5
:10172000816941F4006181612068816921F48061EF
:101730008161206881692A6941EA0221816124E08E
:10174000206800F07FFB2068C16941F00801C16199
:101750002068C16921F00401C1612068C1692A695A
:10176000114311E0206800F099FB2068C16941F441
:101770000061C1612068C16921F48061C161206894
:10178000C1692A6941EA0221C16184F83D600020F3
:1017900084F83C0070BD10B5040003D094F83D00FF
:1017A00010B107E0012010BD002084F83C00204665
:1017B00000F00CF8022084F83D00211D206800F0A4
:1017C00097FA012084F83D00002010BD7047704753
:1017D00010B504460068012200F0C0FA09492068EB
:1017E000884203D1416C41F4004141642068816822
:1017F00001F00701062903D0016841F001010160F1
:10180000002010BD002C01400A4810B5817800234B
:10181000491CCCB28470416B0122491C41630A2CE3
:1018200001D9C2708370B1F5FA6F01D94363427078
:1018300010BD0000000000207047FEE770B58AB0C0
:1018400018216846FEF775FC00251848069507958F
:10185000089515498560016001240473057545608C
:101860004FF460210461C161FEF7C4FE104E00B167
:101870003470039504950F480625CDE900058DF8D1
:10188000084069460948FEF779FD00B1347004202C
:101890000695CDE9074006A90448FEF79BFD002800
:1018A00000D034700AB070BD0024014080000020D8
:1018B00000000020000280002DE9F04186B00024E5
:1018C0002D480094019402940394816941F0100121
:1018D0008161816901F010010491816941F0200169
:1018E0008161816901F020010491816941F0040165
:1018F0008161816901F004010491816941F008016D
:10190000816180691D4F00F008004FF4604504902C
:10191000002229463846FFF7B3F8DFF8648000223A
:101920000E214046FFF7ACF80095022601250396EC
:10193000CDE9015469463846FEF7B2FF0E20CDE9E5
:101940000005CDE9024669464046FEF7A9FF4FF47F
:10195000704000900B48CDE9010569460A48FEF742
:101960009FFF002205212820FFF7FCF82820FFF721
:10197000EBF806B0BDE8F081001002400010014015
:101980000008014000003110000C014070B596B015
:1019900000240F9410941194129413941C216846FF
:1019A0001494FEF7C6FB202107A8FEF7C2FB2F48C0
:1019B0002D49C0E900148460C460046144618461FD
:1019C000FFF7BDFC2A4E012500B135704FF4805061
:1019D0000F900FA92548FFF730FD00B1357023485F
:1019E000FFF7D9FE00B13570139413A91F48149462
:1019F000FFF784FC00B135706020CDE9000402944B
:101A00000394049405940022694618480694FFF74D
:101A10005AFE00B13570042269461448FFF753FEA0
:101A200000B13570082269461048FFF74CFE00B13E
:101A300035700C2269460D48FFF745FE00B1357040
:101A40000794089409944FF400500A94CDE90B4090
:101A500007A906480E94FFF727FC00B1357003482C
:101A6000FFF70AFE16B070BD002C0140B000002048
:101A70000000002070B586B0002416480094019440
:101A80000294039404941249059401600A21C0E968
:101A900001144FF4E161C0E903148461FFF74FFCC6
:101AA0000D4E012500B135704FF48050009069460D
:101AB0000848FFF7C2FC00B13570049404A905483A
:101AC0000594FFF71BFC002800D0357006B070BDF0
:101AD00000040040F000002000000020FEE7FFF7B7
:101AE00031BA000070B51A4E00251A4C182828D0BB
:101AF00006DC06281FD009280DD0122804D118E0D2
:101B0000212810D0242804D00120608125816581FE
:101B100070BD616A10E0216A06E081B201223046A0
:101B2000FEF7AEFFF3E7616A0B48FFF751FE208D29
:101B3000F3E7E16906E0E1690748FFF749FEA08D98
:101B4000EBE7216A0448FFF743FE208BE5E700003E
:101B50000008014000000020B000002070477047DE
:101B6000064810B5002101604160B038FEF706FE5E
:101B7000002802D002490120087010BD3001002069
:101B80000000002070B5FFF7EBFF2048204C012536
:101B90000168C908A1634068C008E063C008206309
:101BA000B0F5CC7F03D840F29910206303E040F2F7
:101BB000FF71884202D24FF4FA7001E04FF47A606C
:101BC000C4E91305206B4FF49661484340F6FF715A
:101BD000B0FBF1F00F492064B1FBF0F060640E48F7
:101BE00000680B49C0F342306031E08031F81000EA
:101BF000A080C0B2FFF776FF04488038FFF7F6FBFD
:101C000000B125700220208170BD0000300100204D
:101C10000000002000093D00080C0140FEF73CBF19
:101C2000F0B593B028216846FEF783FA14210AA87C
:101C3000FEF77FFA002501240F9510952004CDE9C9
:101C4000004011951295029502260494CDE9076093
:101C50004FF4E01009906846FFF780F90E4F00B18D
:101C60003C700F20CDE90A064FF48060CDE90C509E
:101C700002210AA80E95FFF783F800B13C704FF4DB
:101C8000004011900F960FA8FFF702F800B13C70CA
:101C9000FFF70CF913B0F0BD000000200D480168FB
:101CA00041F00101016041680B4A11404160016847
:101CB0000A4A11400160016821F4802101604168F5
:101CC00021F4FE0141604FF41F0181600449C0030B
:101CD00008607047001002400000FFF8FFFFF6FEAA
:101CE00008ED00E00148FFF714BC0000B000002040
:101CF000F0B50268164B174C174D4FF080479842CD
:101D000005D0B84203D0A04201D0A84203D122F0AE
:101D100070064A683243984205D0B84203D0A042C8
:101D200001D0A84203D122F44074CA6822434C690E
:101D300022F08002224302608A68C2620A688262DC
:101D4000984201D10969016301214161F0BD0000A0
:101D5000002C0140000400400008004010B501F0D4
:101D60001F030121046A99408C430462016A9A406E
:101D70001143016210BD10B5846842EA032224F4C5
:101D80007F440A432243826010BD826822F07002C1
:101D90000A4342F0070181607047000030B5026AD3
:101DA00022F001020262026A4368846924F073052A
:101DB0000C682C4322F002058A682A430A4DA84287
:101DC0000BD122F00805CA6823F440732A434D69F9
:101DD00022F004021D438B692B43436084614968F0
:101DE0004163026230BD0000002C014030B5026A40
:101DF00022F010020262026A436884690D6824F4CA
:101E0000E64444EA05248D6822F0200242EA0512E5
:101E10000B4DA8420ED1CD6822F0800242EA051295
:101E20004D6923F4406343EA85038D6922F0400243
:101E300043EA85034360846149688163026230BD7F
:101E4000002C014030B5026A22F480720262036AFB
:101E50004268C46923F4007324F073050C682C43B2
:101E60008D6843EA05230C4DA8420ED1CD6823F4BA
:101E7000006343EA05234D6922F4405242EA051209
:101E80008D6923F4806342EA05124260C4614968A7
:101E9000C163036230BD0000002C014030B5026A0E
:101EA00022F480520262046A4268C3690D6823F416
:101EB000E64343EA05238D6824F4005444EA0534DC
:101EC000064DA84204D14D6922F4804242EA8512AF
:101ED0004260C36149680164046230BD002C014066
:101EE00010B5036A046A24F001040462846924F0D2
:101EF000F00444EA021423F00A020A4384610262F5
:101F000010BD10B5036A23F0100303628369046AED
:101F100023F4704343EA023224F0A00343EA0111A0
:101F20008261016210BDFEE70907090E002804DB8B
:101F300000F1E02080F80014704700F00F0000F17D
:101F4000E02080F8141D704702E008C8121F08C185
:101F5000002AFAD170477047002001E001C1121F2A
:101F6000002AFBD170470000FEF79EFDFFF758FEE8
:101F7000FFF7A2FCFFF762FCFFF708FDFFF77AFD11
:101F80004948FEF795F9494C012100B1217000251F
:101F9000E570A570A56465646565A565E565424E57
:101FA0002581618130368B466570316840F6FF7956
:101FB000C1F82C903068406A4FF47A67C4F80C007E
:101FC000FEF764FDB842FBD3208920B9608901285F
:101FD00001D1FFF7D7FD4FF4CC7840F2991A306861
:101FE000406AE0606078012827D12F48B03001684E
:101FF000C908A1634068C008E0632063FFF7B0FD33
:10200000206B404502D8C4F830A003E040F2FF71D5
:10201000884204D24FF4FA70C4E9130501E0C4E920
:10202000137B6570216B4FF496604143B1FBF9F06F
:102030001F492064B1FBF0F06064E0780128CED144
:10204000A06C0028CBD0616C081A6065A16D0144BA
:10205000A165E26C4243206D00FB01208013032147
:1020600090FBF1F0E065216B0F4A01EBE000616944
:10207000C03242F82100491C6161642900D96561C0
:10208000404501D8504603E0B0F5805F01D3484693
:10209000A56531684863316888633168C863316811
:1020A0000864E5709BE7000080000020000000202D
:1020B00000093D00000000000000000001020304D0
:1020C000060708090000000001020304EC200008D4
:1020D0000000002080000000481F00086C2100085C
:1020E0008000002050060000581F0008000000007B
:1020F00000000000000000000000000000000000E0
:1021000000000000080000000400000008000000BB
:102110000C000000020000000400000000000000AD
:1021200000000000000000000000000000000000AF
:10213000000000000000000000000000000000009F
:10214000000000000000000000000000000024006B
:102150000900210012000600180000000100000024
:0C21600010000000000000000024F4004B
:04000005080000ED02
:00000001FF
